:020000040800F2
:10000000000001201D1B0008A1140008A91400080D
:10001000B1140008B9140008C11400080000000061
:10002000000000000000000000000000C9140008EB
:10003000D714000800000000E5140008F3140008BD
:100040006D1B00086D1B00086D1B00086D1B000870
:100050006D1B00086D1B00086D1B00086D1B000860
:100060006D1B00086D1B00086D1B00086D1B000850
:100070006D1B00086D1B00086D1B00086D1B000840
:100080006D1B00086D1B0008011500080000000032
:100090000000000000000000000000006D1B0008D0
:1000A00015150008291500084515000861150008F8
:1000B000751500086D1B00086D1B00086D1B0008FE
:1000C0006D1B00086D1B00086D1B00086D1B0008F0
:1000D0006D1B00086D1B000889150008000000005A
:1000E0006D1B00086D1B00086D1B00080000000060
:1000F0000000000000000000000000006D1B000870
:10010000000000006D1B00086D1B00086D1B00083F
:1001100000000000000000000000000000000000DF
:100120009D1500086D1B00086D1B00086D1B000865
:100130006D1B00080000000000000000000000002F
:100140000000000000000000000000006D1B00081F
:100150006D1B00086D1B00086D1B00086D1B00085F
:100160006D1B00086D1B000800000000000000006F
:10017000000000000000000000000000000000007F
:10018000000000006D1B00080000000000000000DF
:040190006D1B0008DB
:1001980010B5054C237833B9044B13B10448AFF3B9
:1001A80000800123237010BD2800002000000000FB
:1001B800AC62000808B5034B1BB103490348AFF311
:1001C800008008BD000000002C000020AC62000880
:1001D80070B54FF0FF0C4CF4E06C1CEA11541DBFD5
:1001E8001CEA135594EA0C0F95EA0C0F00F0DEF8A0
:1001F8002C4481EA030621EA4C5123EA4C5350EA85
:10020800013518BF52EA033541F4801143F48013D5
:1002180038D0A0FB02CE4FF00005E1FB02E506F066
:100228000042E0FB03E54FF00006E1FB03569CF0BB
:10023800000F18BF4EF0010EA4F1FF04B6F5007FC1
:1002480064F5407404D25FEA4E0E6D4146EB060633
:1002580042EAC62141EA55514FEAC52040EA5E50BC
:100268004FEACE2EB4F1FD0C88BFBCF5E06F1ED866
:10027800BEF1004F08BF5FEA500E50F1000041EB9D
:10028800045170BD06F0004646EA010140EA02004A
:1002980081EA0301B4EB5C04C2BFD4EB0C0541EA6C
:1002A800045170BD41F480114FF0000E013C00F381
:1002B800AB8014F1360FDEBF002001F0004170BDA5
:1002C800C4F10004203C35DA0C341BDC04F11404BE
:1002D800C4F1200500FA05F320FA04F001FA05F24A
:1002E80040EA020001F0004221F0004110EBD37017
:1002F80021FA04F642EB06015EEA430E08BF20EA43
:10030800D37070BDC4F10C04C4F1200500FA04F3E5
:1003180020FA05F001FA04F240EA020001F0004177
:1003280010EBD37041F100015EEA430E08BF20EAEA
:10033800D37070BDC4F1200500FA05F24EEA020E32
:1003480020FA04F301FA05F243EA020321FA04F061
:1003580001F0004121FA04F220EA020000EBD37018
:100368005EEA430E08BF20EAD37070BD94F0000F18
:100378000FD101F00046400041EB010111F4801F4C
:1003880008BF013CF7D041EA060195F0000F18BFFD
:10039800704703F00046520043EB030313F4801F39
:1003A80008BF013DF7D043EA0603704794EA0C0FF3
:1003B8000CEA135518BF95EA0C0F0CD050EA410609
:1003C80018BF52EA4306D1D181EA030101F0004186
:1003D8004FF0000070BD50EA410606BF10461946AE
:1003E80052EA430619D094EA0C0F02D150EA0136BA
:1003F80013D195EA0C0F05D152EA03361CBF1046FB
:1004080019460AD181EA030101F0004141F0FE4199
:1004180041F470014FF0000070BD41F0FE4141F41D
:10042800780170BD81F0004102E000BF83F0004315
:1004380030B54FEA41044FEA430594EA050F08BF77
:1004480090EA020F1FBF54EA000C55EA020C7FEA3B
:10045800645C7FEA655C00F0E2804FEA5454D4EBB8
:100468005555B8BF6D420CDD2C4480EA020281EA82
:10047800030382EA000083EA010180EA020281EABA
:100488000303362D88BF30BD11F0004F4FEA01310C
:100498004FF4801C4CEA113102D0404261EB41011B
:1004A80013F0004F4FEA03334CEA133302D05242A1
:1004B80063EB430394EA050F00F0A780A4F101045D
:1004C800D5F1200E0DDB02FA0EFC22FA05F2801897
:1004D80041F1000103FA0EF2801843FA05F359417D
:1004E8000EE0A5F120050EF1200E012A03FA0EFCFC
:1004F80028BF4CF0020C43FA05F3C01851EBE37126
:1005080001F0004507D54FF0000EDCF1000C7EEB42
:1005180000006EEB0101B1F5801F1BD3B1F5001F80
:100528000CD349085FEA30004FEA3C0C04F101049F
:100538004FEA445212F5800F80F09A80BCF1004FC8
:1005480008BF5FEA500C50F1000041EB045141EA4A
:10055800050130BD5FEA4C0C404141EB0101013C13
:1005680028BFB1F5801FE9D291F0000F04BF014602
:100578000020B1FA81F308BF2033A3F10B03B3F1D4
:1005880020020CDA0C3208DD02F1140CC2F10C0264
:1005980001FA0CF021FA02F10CE002F11402D8BFC2
:1005A800C2F1200C01FA02F120FA0CFCDCBF41EA8E
:1005B8000C019040E41AA2BF01EB0451294330BD5D
:1005C8006FEA04041F3C1CDA0C340EDC04F114043A
:1005D800C4F1200220FA04F001FA02F340EA030011
:1005E80021FA04F345EA030130BDC4F10C04C4F157
:1005F800200220FA02F001FA04F340EA0300294637
:1006080030BD21FA04F0294630BD94F0000F83F480
:10061800801306BF81F480110134013D4EE77FEA63
:10062800645C18BF7FEA655C29D094EA050F08BFAF
:1006380090EA020F05D054EA000C04BF1946104690
:1006480030BD91EA030F1EBF0021002030BD5FEAD4
:10065800545C05D14000494128BF41F0004130BDFC
:1006680014F580043CBF01F5801130BD01F0004550
:1006780045F0FE4141F470014FF0000030BD7FEAC3
:10068800645C1ABF194610467FEA655C1CBF0B46BE
:10069800024650EA013406BF52EA033591EA030FD5
:1006A80041F4002130BD00BF90F0000F04BF0021CD
:1006B800704730B54FF4806404F132044FF0000500
:1006C8004FF0000150E700BF90F0000F04BF002179
:1006D800704730B54FF4806404F1320410F00045DF
:1006E80048BF40424FF000013EE700BF42004FEADA
:1006F800E2014FEA31014FEA02701FBF12F07F4357
:1007080093F07F4F81F06051704732F07F4208BF0D
:10071800704793F07F4F04BF41F40021704730B514
:100728004FF4607401F0004521F000411CE700BF60
:1007380050EA010208BF704730B54FF000050AE0E3
:1007480050EA010208BF704730B511F0004502D5E4
:10075800404261EB41014FF4806404F132045FEAE6
:10076800915C3FF4D8AE4FF003025FEADC0C18BF8F
:1007780003325FEADC0C18BF033202EBDC02C2F181
:10078800200300FA03FC20FA02F001FA03FE40EA13
:100798000E0021FA02F11444BDE600BF4A0011D24E
:1007A80012F5001211D20DD56FF47873B3EB6252C3
:1007B8000ED44FEAC12343F0004343EA505323FACF
:1007C80002F070474FF00000704750EA013002D144
:1007D8004FF0FF3070474FF00000704753B94AB9E7
:1007E800002908BF00281CBF4FF0FF314FF0FF3031
:1007F80000F06AB9ADF1080C6DE904CE00F006F816
:10080800DDF804E0DDE9022304B070472DE9F04784
:10081800089D0C46002B4ED194468C458646B2FA6C
:1008280082F262D94AB1C2F12003914020FA03F35F
:100838000CFA02FC194300FA02FE4FEA1C471FFAA1
:100848008CF6B1FBF7F44FEA1E4307FB141143EA99
:10085800014304FB06F199420AD91CEB030304F196
:10086800FF3080F01281994240F20F81023C6344CC
:10087800591A1FFA8EF3B1FBF7F007FB101143EA80
:10088800014300FB06F69E420AD91CEB030300F164
:10089800FF3180F0FC809E4240F2F98063440238C8
:1008A8009B1B40EA044000211DB1D3400022C5E94A
:1008B8000032BDE8F0878B4205D90DB1C5E90001CA
:1008C80000210846F5E7B3FA83F1002946D1A3428F
:1008D80002D39042C0F0F080861A64EB0303012033
:1008E800002DE6D0C5E90063E3E7002A40F09080D8
:1008F800A1EB0C044FEA1C481FFA8CF70121B4FB4A
:10090800F8F64FEA1E4308FB164443EA044307FB84
:1009180006F0984208D91CEB030306F1FF3402D213
:10092800984200F2CD8026461C1A1FFA8EF3B4FBBB
:10093800F8F008FB104443EA044300FB07F79F4222
:1009480008D91CEB030300F1FF3402D29F4200F2E6
:10095800B0802046DB1B40EA0640A5E7C1F120062F
:100968008B4022FA06F71F4320FA06FC04FA01F32B
:1009780043EA0C03F44000FA01F8380C4FEA134933
:10098800B4FBF0FE1FFA87FC00FB1E4449EA04444E
:100998000EFB0CF9A14502FA01F20AD93C190EF135
:1009A800FF3A80F08480A14540F28180AEF1020ECA
:1009B8003C44A4EB09041FFA83F9B4FBF0F300FBF1
:1009C800134449EA044403FB0CFCA44507D93C1929
:1009D80003F1FF3067D2A44565D9023B3C4443EAA2
:1009E8000E40A0FB0293A4EB0C049C42CE469C460E
:1009F80051D34ED055B1B8EB0E0364EB0C0404FA96
:100A080006F6CB401E43CC40C5E90064002150E700
:100A1800C2F1200320FA03F10CFA02FC24FA03F3D2
:100A280094400C434FEA1C4800FA02FE1FFA8CF768
:100A3800B3FBF8F008FB1031230C43EA014300FB39
:100A480007F1994208D91CEB030300F1FF362CD2B9
:100A580099422AD9023863445B1AA4B2B3FBF8F16D
:100A680008FB113344EA034401FB07F3A34208D906
:100A78001CEB040401F1FF3613D2A34211D9023949
:100A88006444E41A41EA004139E70446F0E60846BE
:100A980006E7C845AED2B9EB020E63EB070C013886
:100AA800A8E73146EDE7034699E73046D4E7D6464E
:100AB8007FE7634402384DE70646234608460FE7BA
:100AC800023E634430E700BF704700BF80B584B082
:100AD80000AF3B4600221A605A609A60DA60214BE8
:100AE800214A1A601F4B00225A601E4B00229A604E
:100AF8001C4B00221A611B4B00221A76194B00224C
:100B080083F82020174B0022DA62164B174A9A62A4
:100B1800144B0022DA60134B0122DA61114B0022D8
:100B280083F830200F4B01225A610E4801F0B2F8C9
:100B38000346002B01D000F081FC00233B60012319
:100B48007B600023BB603B461946064801F094FBD6
:100B58000346002B01D000F071FC00BF1037BD46E2
:100B680080BD00BF44000020002001400100000FAC
:100B780080B58CB000AF786007F11C0300221A60C2
:100B88005A609A60DA601A617B681B684D4A934222
:100B980040F094800023BB614B4B5B6C4A4A43F4A2
:100BA80080735364484B5B6C03F48073BB61BB690F
:100BB80000237B61444B1B6B434A43F001031363DF
:100BC800414B1B6B03F001037B617B6900233B6195
:100BD8003D4B1B6B3C4A43F0040313633A4B1B6BBE
:100BE80003F004033B613B690023FB60364B1B6B3E
:100BF800354A43F002031363334B1B6B03F00203C4
:100C0800FB60FB680323FB6103233B6200237B62D9
:100C180007F11C0319462D4802F0E4F92023FB6173
:100C280003233B6200237B6207F11C031946284813
:100C380002F0D8F90223FB6103233B6200237B62A5
:100C480007F11C031946234802F0CCF9224B234A2A
:100C58001A60214B00225A601F4B00229A601E4BDB
:100C68000022DA601C4B4FF480621A611A4B4FF471
:100C780000625A61184B4FF400529A61164B4FF4B8
:100C88008072DA61144B00221A62134B00225A62F6
:100C9800114801F02BFE0346002B01D000F0CEFBDB
:100CA8007B680D4A9A630C4A7B6893630022002193
:100CB800122001F0E4FD122001F0FDFD00BF3037E5
:100CC800BD4680BD002001400038024000000240BF
:100CD80000080240000402408C000020106402401A
:100CE80080B582B000AF00237B600C4B1B6B0B4AB6
:100CF80043F480031363094B1B6B03F480037B608D
:100D08007B6800220021382001F0B9FD382001F06D
:100D1800D2FD00BF0837BD4680BD00BF0038024085
:100D280080B58AB000AF07F1140300221A605A6038
:100D38009A60DA601A6100233B61454B1B6B444A99
:100D480043F080031363424B1B6B03F080033B614A
:100D58003B690023FB603E4B1B6B3D4A43F001039C
:100D680013633B4B1B6B03F00103FB60FB68002321
:100D7800BB60374B1B6B364A43F004031363344B99
:100D88001B6B03F00403BB60BB6800237B60304B24
:100D98001B6B2F4A43F0020313632D4B1B6B03F0AD
:100DA80002037B607B680022F0212A4802F0B6FA31
:100DB800002247F28131284802F0B0FAF0237B6123
:100DC8000123BB610023FB6100233B6207F114038D
:100DD8001946204802F006F947F201037B61012316
:100DE800BB610023FB6100233B6207F11403194632
:100DF800194802F0F7F804237B610023BB61002344
:100E0800FB6107F114031946134802F0EBF81823A5
:100E18007B614FF48813BB610023FB6107F1140366
:100E280019460D4802F0DEF84FF460737B61112318
:100E3800BB610023FB6100233B6207F114031946E1
:100E4800054802F0CFF800BF2837BD4680BD00BF77
:100E58000038024000000240000402400000000088
:100E680080B582B000AF78607B681B7F022B78D199
:100E7800414B1B78002B1AD10421786803F0D2FC6F
:100E880003463E4A13603C4B01221A707B681B687C
:100E98001A6A7B681B6822F0A0021A627B681B68CA
:100EA8001A6A7B681B6842F020021A6259E0324BCA
:100EB8001B78012B55D10421786803F0B3FC034655
:100EC8002F4A13607B681B6800225A622C4B1A68F1
:100ED8002A4B1B689A4207D9294B1A68274B1B686B
:100EE800D31A284A13600FE0244B1A68244B1B6856
:100EF8009A4209D9224B1A68204B1B68D31A03F56A
:100F08007F43FF331F4A13601E4B1B681846FFF7C9
:100F1800CBFB17A3D3E90023FFF75AF902460B4688
:100F280010461946FFF73AFC0346DAB2164B1A7018
:100F3800114B00221A707B681B681A6A7B681B6851
:100F480022F0A0021A627B681A687B681B68126A22
:100F58001A620E4B1B68DA680C4B1B6822F00402FD
:100F6800DA6000BF0837BD4680BD00BFAFF3008020
:100F78009CC420B07268913FF8000020EC0000206B
:100F8800F0000020F4000020F900002018010020E3
:100F980080B584B000AF00F0E7FD00F095F9FFF7E9
:100FA800BFFEFFF79DFE00F011FB00F083FBFFF78B
:100FB8008DFD00F0F5FB00F017FC00F031FD01227B
:100FC800B149B24804F058F90421B14802F0FAFFD7
:100FD800B04805F013F9AC4B1B78612B03D1AE4830
:100FE80005F06EF80DE0AD4B1B78092B03D8AA4825
:100FF80005F066F805E0AA4B1B681946A64805F0F7
:10100800A9F83B4600221A605A609A60DA60002309
:101018003B6001237B600123BB603B461946A14826
:1010280001F02AF99F4800F079FE4FF0FF319D4802
:1010380000F05BFF0346002B05D19A4801F0F0F859
:101048000346994A1360974800F01CFF964B1B68AB
:10105800642202FB03F3954AA2FB03231B0B904A6D
:10106800136001233B6001237B603B4619468D4892
:1010780001F002F98B4800F051FE4FF0FF3189482A
:1010880000F033FF0346002B05D1864801F0C8F86D
:101098000346854A5360834800F0F4FE824B5B6840
:1010A800642202FB03F3824AA2FB03231B0A814A40
:1010B800136009233B6001237B600123BB603B462F
:1010C8001946784801F0D8F8764800F027FE4FF026
:1010D800FF31744800F009FF0346002B05D1714821
:1010E80001F09EF80346704A93606E4800F0CAFE0D
:1010F8006D4B9B68642202FB03F36D4AA2FB03233A
:101108001B0A6D4A1360604B1B78622B27D10122A2
:1011180010216A4802F002F901224FF48051684810
:1011280002F0FCF8142000F091FD01222021634810
:1011380002F0F4F801224FF40051614802F0EEF891
:10114800142000F083FD012240215C4802F0E6F8FB
:1011580001224FF480415A4802F0E0F846E04A4B39
:101168001B78632B0BD100227021544802F0D6F86B
:1011780000224FF4E041524802F0D0F836E04D4BDF
:101188001B680B2B27D8012210214C4802F0C6F807
:1011980001224FF480514A4802F0C0F8142000F0B0
:1011A80055FD01222021454802F0B8F801224FF4EC
:1011B8000051434802F0B2F8142000F047FD012224
:1011C80040213E4802F0AAF801224FF480413C48F1
:1011D80002F0A4F80AE000227021384802F09EF8D4
:1011E80000224FF4E041364802F098F804213448D0
:1011F80002F07CF803461A46324B1A70224B1B78D1
:10120800662B05D1012280212D4802F087F81CE0C9
:10121800294B1B68042B03D92A4B1B78002B0AD1B6
:1012280001228021254802F079F8002280212448F3
:1012380002F074F809E000228021204802F06EF8DC
:10124800012280211E4802F069F80F4B1B78642B9D
:101258000AD101228021194802F060F80022802179
:10126800174802F05BF8B3E6074B1B78652B7FF451
:10127800AFAE00228021114802F050F801228021EF
:101288000F4802F04BF8A3E61401002038020020B2
:10129800180100201800002010000020F90000208C
:1012A8000C01002044000020FC000020FD0FC0FFBE
:1012B800D34D6210080100201001002000000240F8
:1012C800000402400000002080B594B000AF07F190
:1012D800200330220021184604F0B7FF07F10C0361
:1012E80000221A605A609A60DA601A610023BB60B3
:1012F800284B1B6C274A43F080531364254B1B6C07
:1013080003F08053BB60BB6800237B60224B1B68E3
:1013180023F44043204A43F4004313601E4B1B68E8
:1013280003F440437B607B6801233B624FF48033C6
:101338007B620223BB634FF48003FB6319233B6486
:1013480080237B640223BB640423FB6407F120032E
:10135800184601F0FDFF0346002B01D000F06EF89F
:101368000F23FB6002233B6190237B610023BB6159
:101378000023FB6107F10C030021184602F060FA14
:101388000346002B01D000F059F800BF5037BD4686
:1013980080BD00BF003802400070004080B582B0B8
:1013A80000AF78607B68064A934204D10122054960
:1013B800034803F061FF00BF0837BD4680BD00BF8A
:1013C800380200201401002080B582B000AF786098
:1013D8007B681B68144A93420ED100224FF4807137
:1013E800124801F09BFF00224FF400710F4801F0F2
:1013F80095FF0F4802F053FC7B681B680D4A934227
:101408000ED100224FF48071084801F087FF0022B6
:101418004FF40071054801F081FF074802F03FFCD6
:1014280000BF0837BD4680BD0044014000040240AB
:10143800A801002000480140F001002080B400AF5E
:1014480072B600BF00BFFDE780B483B000AF0023D1
:101458007B60104B5B6C0F4A43F4804353640D4B25
:101468005B6C03F480437B607B6800233B60094B23
:101478001B6C084A43F080531364064B1B6C03F043
:1014880080533B603B6800BF0C37BD465DF8047B6A
:10149800704700BF0038024080B400AF00BFFDE7CE
:1014A80080B400AF00BFFDE780B400AF00BFFDE728
:1014B80080B400AF00BFFDE780B400AF00BFFDE718
:1014C80080B400AF00BFBD465DF8047B704780B4B0
:1014D80000AF00BFBD465DF8047B704780B400AF25
:1014E80000BFBD465DF8047B704780B500AF00F0D3
:1014F8008DFB00BF80BD000080B500AF024800F042
:101508007FFD00BF80BD00BF4400002080B500AF54
:10151800024802F071FE00BF80BD00BF1801002024
:1015280080B500AF034802F067FE034802F064FE8E
:1015380000BF80BD18010020A801002080B500AFC1
:10154800034802F059FE034802F056FE00BF80BD72
:1015580018010020F001002080B500AF024802F019
:101568004BFE00BF80BD00BF1801002080B500AF52
:10157800024802F041FE00BF80BD00BF60010020AC
:1015880080B500AF024803F09DFE00BF80BD00BFDC
:101598003802002080B500AF024801F0E7FA00BF2A
:1015A80080BD00BF8C00002080B400AF064BD3F88C
:1015B8008830054A43F47003C2F8883000BFBD463E
:1015C8005DF8047B704700BF00ED00E080B58AB08D
:1015D80000AF07F1180300221A605A609A60DA60B7
:1015E80007F1100300221A605A603B4600221A6075
:1015F8005A609A60DA602D4B2D4A1A602B4B0F22E5
:101608005A602A4B00229A60284B4FF6FF72DA6024
:10161800264B00221A61254B00225A61234B0022D7
:101628009A61224802F0ECFA0346002B01D0FFF73A
:1016380005FF4FF48053BB6107F1180319461B4897
:1016480003F028F80346002B01D0FFF7F7FE1748F0
:1016580002F05EFC0346002B01D0FFF7EFFE0023EB
:101668003B6100237B6107F1100319460F4803F023
:1016780031FD0346002B01D0FFF7E0FE00233B605D
:1016880001237B600023BB600023FB603B460422F0
:101698001946064802F0A0FE0346002B01D0FFF7CA
:1016A800CDFE00BF2837BD4680BD00BF1801002011
:1016B8000000014080B58EB000AF07F1280300227A
:1016C8001A605A609A60DA6007F1200300221A60F3
:1016D8005A603B1D00221A605A609A60DA601A61EB
:1016E8005A619A612D4B4FF080421A602B4B9F2212
:1016F8005A602A4B00229A60284B40F2CF72DA6077
:10170800264B00221A61254B00229A61234802F0D9
:1017180077FA0346002B01D0FFF790FE4FF4805371
:10172800BB6207F1280319461C4802F0B3FF0346C1
:10173800002B01D0FFF782FE184802F0DFFA0346BB
:10174800002B01D0FFF77AFE00233B6200237B6267
:1017580007F120031946114803F0BCFC0346002B8F
:1017680001D0FFF76BFE60237B600023BB60002382
:10177800FB6000237B613B1D00221946074802F0ED
:10178800C7FE0346002B01D0FFF758FE034800F0C0
:101798000FF900BF3837BD4680BD00BF600100208B
:1017A80080B500AF0E4B0F4A1A600D4B43F67F62AF
:1017B8005A600B4B00229A60094B42F20F72DA60B2
:1017C800074B00221A61064B00229A61044802F076
:1017D80017FA0346002B01D0FFF730FE00BF80BD8B
:1017E800A80100200044014080B500AF0E4B0F4A0D
:1017F8001A600D4B40F23F625A600B4B00229A6010
:10180800094B42F20F72DA60074B00221A61064B4D
:1018180000229A61044802F0F3F90346002B01D034
:10182800FFF70CFE00BF80BDF0010020004801401A
:1018380080B58CB000AF786007F11C0300221A60F5
:101848005A609A60DA601A617B681B68534A93424F
:101858004DD10023BB61524B5B6C514A43F00103ED
:1018680053644F4B5B6C03F00103BB61BB690023FE
:101878007B614B4B1B6B4A4A43F001031363484B94
:101888001B6B03F001037B617B694FF40073FB6101
:1018980002233B6200237B620023BB620123FB62BD
:1018A80007F11C0319463F4801F09CFB0022002168
:1018B800182000F0E4FF182000F0FDFF00220021AE
:1018C800192000F0DCFF192000F0F5FF00220021AC
:1018D8001A2000F0D4FF1A2000F0EDFF00220021AA
:1018E8001B2000F0CCFF1B2000F0E5FF52E07B68D6
:1018F8001B68B3F1804F16D100233B61284B1B6C4A
:10190800274A43F001031364254B1B6C03F00103C2
:101918003B613B69002200211C2000F0B0FF1C2025
:1019280000F0C9FF36E07B681B681F4A934216D156
:101938000023FB601A4B5B6C194A43F40033536471
:10194800174B5B6C03F40033FB60FB68002200213B
:10195800192000F094FF192000F0ADFF1AE07B6811
:101968001B68124A934215D10023BB600C4B5B6C79
:101978000B4A43F480235364094B5B6C03F48023C4
:10198800BB60BB68002200211A2000F078FF1A20F3
:1019980000F091FF00BF3037BD4680BD0000014018
:1019A8000038024000000240004401400048014065
:1019B80080B588B000AF786007F10C0300221A6088
:1019C8005A609A60DA601A617B681B68B3F1804FCD
:1019D8001ED10023BB60104B1B6B0F4A43F0010361
:1019E80013630D4B1B6B03F00103BB60BB684FF423
:1019F8000043FB6002233B6100237B610023BB6142
:101A08000123FB6107F10C031946044801F0EAFAC7
:101A180000BF2037BD4680BD0038024000000240AC
:101A280080B500AF114B124A1A60104B4FF4165292
:101A38005A600E4B00229A600C4B0022DA600B4B66
:101A480000221A61094B0C225A61084B00229A6144
:101A5800064B0022DA61054803F0BEFB0346002B63
:101A680001D0FFF7EBFC00BF80BD00BF38020020AB
:101A78000044004080B58AB000AF786007F11403D5
:101A880000221A605A609A60DA601A617B681B68E3
:101A98001D4A934233D100233B611C4B1B6C1B4AEC
:101AA80043F400331364194B1B6C03F400333B619C
:101AB8003B690023FB60154B1B6B144A43F0010381
:101AC8001363124B1B6B03F00103FB60FB680C23D1
:101AD8007B610223BB610023FB6103233B62072375
:101AE8007B6207F114031946094801F07BFA0022CA
:101AF8000021262000F0C3FE262000F0DCFE00BFF7
:101B08002837BD4680BD00BF004400400038024071
:101B180000000240DFF834D0FFF746FD0C480D49BD
:101B28000D4A002302E0D458C4500433C4188C4230
:101B3800F9D30A4A0A4C002301E013600432A24296
:101B4800FBD304F08BFBFFF723FA7047000001205A
:101B58000000002028000020F4620008280000206F
:101B680088020020FEE7000080B500AF0E4B1B681E
:101B78000D4A43F4007313600B4B1B680A4A43F485
:101B880080631360084B1B68074A43F48073136033
:101B9800032000F069FE0F2000F008F8FFF754FC5E
:101BA8000023184680BD00BF003C024080B582B0CB
:101BB80000AF7860124B1A68124B1B7819464FF425
:101BC8007A73B3FBF1F3B2FBF3F3184600F081FE2E
:101BD8000346002B01D001230EE07B680F2B0AD8A7
:101BE800002279684FF0FF3000F049FE064A7B6812
:101BF8001360002300E0012318460837BD4680BD66
:101C0800040000200C0000200800002080B400AF71
:101C1800064B1B781A46064B1B681344044A13608C
:101C280000BFBD465DF8047B704700BF0C00002074
:101C38008002002080B400AF034B1B681846BD46E5
:101C48005DF8047B704700BF8002002080B584B037
:101C580000AF7860FFF7EEFFB8607B68FB60FB6859
:101C6800B3F1FF3F05D00A4B1B781A46FB681344B3
:101C7800FB6000BFFFF7DEFF0246BB68D31AFA68B5
:101C88009A42F7D800BF00BF1037BD4680BD00BFDD
:101C98000C00002080B584B000AF78600023FB738F
:101CA8007B68002B01D1012333E07B681B6C002B80
:101CB80009D17868FEF75CFF7B6800225A647B686C
:101CC800002283F83C207B681B6C03F01003002B78
:101CD80018D17B681B6C23F4885323F0020343F06C
:101CE80002027B681A64786800F0E8FB7B680022CF
:101CF8005A647B681B6C23F0030343F001027B6882
:101D08001A6401E00123FB737B68002283F83C20FE
:101D1800FB7B18461037BD4680BD000080B485B0F7
:101D280000AF78600023BB607B6893F83C30012BE0
:101D380001D1022397E07B68012283F83C207B686D
:101D48001B689B6803F00103012B18D07B681B6894
:101D58009A687B681B6842F001029A60454B1B68D1
:101D6800454AA2FB03239A0C13465B001344BB604D
:101D780002E0BB68013BBB60BB68002BF9D17B6804
:101D88001B689B6803F00103012B5FD17B681B6C08
:101D980023F4E06323F0010343F480727B681A6440
:101DA8007B681B685B6803F48063002B07D07B6843
:101DB8001B6C23F4405343F480527B681A647B689D
:101DC8001B6C03F48053B3F5805F06D17B685B6CB2
:101DD80023F006027B685A6402E07B6800225A649A
:101DE8007B68002283F83C20244BFB607B681B68DF
:101DF8006FF022021A60FB685B6803F01F03002B78
:101E08000FD17B681B689B6803F04053002B29D1D6
:101E18007B681B689A687B681B6842F080429A60FE
:101E280020E07B681B68164A93421BD17B681B68BD
:101E38009B6803F04053002B14D17B681B689A6899
:101E48007B681B6842F080429A600BE07B681B6CE1
:101E580043F010027B681A647B685B6C43F00102F4
:101E68007B685A64002318461437BD465DF8047B26
:101E7800704700BF0400002083DE1B43002301409D
:101E88000020014080B483B000AF78607B6893F88D
:101E98003C30012B01D1022321E07B68012283F829
:101EA8003C207B681B689A687B681B6822F00102EB
:101EB8009A607B681B689B6803F00103002B09D1BB
:101EC8007B681B6C23F4885323F0010343F0010261
:101ED8007B681A647B68002283F83C20002318463C
:101EE8000C37BD465DF8047B704780B584B000AF01
:101EF800786039600023FB607B681B689B6803F48B
:101F08008063B3F5806F13D17B681B689B6803F40B
:101F18008073B3F5807F0BD17B681B6C43F0200284
:101F28007B681A647B68002283F83C20012363E005
:101F3800FFF780FEF86021E03B68B3F1FF3F1DD05A
:101F48003B68002B07D0FFF775FE0246FB68D31AE3
:101F58003A689A4212D27B681B681B6803F0020336
:101F6800022B0BD07B681B6C43F004027B681A645D
:101F78007B68002283F83C2003233DE07B681B68D4
:101F88001B6803F00203022BD6D17B681B686FF035
:101F980012021A607B681B6C43F400727B681A6437
:101FA8007B681B689B6803F04053002B23D17B6838
:101FB8001B7E002B1FD17B681B68DB6A03F4700350
:101FC800002B06D07B681B689B6803F48063002B9A
:101FD80011D17B681B6C23F480727B681A647B6860
:101FE8001B6C03F48053002B05D17B681B6C43F0FA
:101FF80001027B681A64002318461037BD4680BD6D
:1020080080B586B000AF786000237B6100233B6118
:102018007B681B681B68FB607B681B685B68BB6030
:10202800FB6803F002037B61BB6803F020033B619C
:102038007B69002B49D03B69002B46D07B681B6C21
:1020480003F01003002B05D17B681B6C43F400726E
:102058007B681A647B681B689B6803F04053002BFD
:102068002BD17B681B7E002B27D17B681B68DB6A22
:1020780003F47003002B06D07B681B689B6803F48D
:102088008063002B19D17B681B685A687B681B68C2
:1020980022F020025A607B681B6C23F480727B68F4
:1020A8001A647B681B6C03F48053002B05D17B6892
:1020B8001B6C43F001027B681A64786800F0BDF875
:1020C8007B681B686FF012021A60FB6803F0040358
:1020D8007B61BB6803F080033B617B69002B57D0B1
:1020E8003B69002B54D07B681B6C03F01003002B5A
:1020F80005D17B681B6C43F400527B681A647B68CB
:102108001B689B6803F44013002B39D17B681B685C
:102118009B6B03F44013002B06D07B681B689B68FD
:1021280003F48063002B2BD17B681B685B6803F486
:102138008063002B24D17B681B689B6803F04053A5
:10214800002B1DD17B681B7E002B19D17B681B6877
:102158005A687B681B6822F080025A607B681B6C97
:1021680023F480527B681A647B681B6C03F48073C9
:10217800002B05D17B681B6C43F001027B681A6455
:10218800786800F097FA7B681B686FF00C021A6099
:10219800FB6803F001037B61BB6803F040033B610C
:1021A8007B69002B17D03B69002B14D07B681B6818
:1021B8001B6803F00103012B0DD17B681B6C43F4F2
:1021C80080327B681A64786800F041F87B681B6885
:1021D8006FF001021A60FB6803F020037B61BB68A3
:1021E80003F080633B617B69002B15D03B69002BB2
:1021F80012D07B685B6C43F002027B685A647B6890
:102208001B686FF020021A60786800F02AF87B6873
:102218001B686FF020021A6000BF1837BD4680BDEA
:1022280080B483B000AF78607B681B68DB6C1846AD
:102238000C37BD465DF8047B704780B483B000AFAF
:10224800786000BF0C37BD465DF8047B704780B4EA
:1022580083B000AF786000BF0C37BD465DF8047BE3
:10226800704780B483B000AF786000BF0C37BD46BC
:102278005DF8047B7047000080B485B000AF7860DB
:1022880039600023BB607B6893F83C30012B01D197
:10229800022305E17B68012283F83C203B681B6828
:1022A800092B25D97B681B68D9683B681B689BB2DA
:1022B8001A4613465B0013441E3B072202FA03F337
:1022C800DA437B681B680A40DA607B681B68D96858
:1022D8003B689A683B681B689BB2184603465B00DC
:1022E80003441E3B9A407B681B680A43DA6022E07D
:1022F8007B681B6819693B681B689BB21A461346C2
:102308005B001344072202FA03F3DA437B681B6875
:102318000A401A617B681B6819693B689A683B68C0
:102328001B689BB2184603465B0003449A407B68CF
:102338001B680A431A613B685B68062B24D87B68D4
:102348001B68596B3B685A6813469B001344053B4E
:102358001F2202FA03F3DA437B681B680A405A63B8
:102368007B681B68596B3B681B689BB218463B68C7
:102378005A6813469B001344053B00FA03F27B6836
:102388001B680A435A634CE03B685B680C2B24D8F3
:102398007B681B68196B3B685A6813469B0013449B
:1023A800233B1F2202FA03F3DA437B681B680A40C7
:1023B8001A637B681B68196B3B681B689BB21846DD
:1023C8003B685A6813469B001344233B00FA03F208
:1023D8007B681B680A431A6323E07B681B68D96A19
:1023E8003B685A6813469B001344413B1F2202FA7C
:1023F80003F3DA437B681B680A40DA627B681B6870
:10240800D96A3B681B689BB218463B685A681346F2
:102418009B001344413B00FA03F27B681B680A43A4
:10242800DA62224BFB607B681B68214A934209D120
:102438003B681B68122B05D1FB685B6843F480027C
:10244800FB685A607B681B68194A934223D13B6832
:102458001B68102B03D03B681B68112B1BD1FB6832
:102468005B6843F40002FB685A603B681B68102BEA
:1024780011D1104B1B68104AA2FB03239A0C134678
:102488009B0013445B00BB6002E0BB68013BBB6080
:10249800BB68002BF9D17B68002283F83C2000231D
:1024A80018461437BD465DF8047B70470023014089
:1024B800002001400400002083DE1B4380B485B067
:1024C80000AF7860794BFB60FB685B6823F44032AF
:1024D800FB685A60FB685A687B685B681A43FB684C
:1024E8005A607B681B685A687B681B6822F4807294
:1024F8005A607B681B6859687B681B691A027B688D
:102508001B680A435A607B681B685A687B681B68AB
:1025180022F040725A607B681B6859687B689A6829
:102528007B681B680A435A607B681B689A687B68EB
:102538001B6822F400629A607B681B6899687B6854
:10254800DA687B681B680A439A607B689B6A584A0A
:10255800934222D07B681B689A687B681B6822F0CC
:1025680070629A607B681B6899687B689A6A7B6866
:102578001B680A439A607B681B689A687B681B68BB
:1025880022F040529A607B681B6899687B68DA6A17
:102598007B681B680A439A600FE07B681B689A682F
:1025A8007B681B6822F070629A607B681B689A6877
:1025B8007B681B6822F040529A607B681B689A68A7
:1025C8007B681B6822F002029A607B681B68996826
:1025D8007B681B7E5A007B681B680A439A607B688D
:1025E80093F82030002B1BD07B681B685A687B68E7
:1025F8001B6842F400625A607B681B685A687B68F3
:102608001B6822F460425A607B681B6859687B68C3
:102618005B6A013B5A037B681B680A435A6007E000
:102628007B681B685A687B681B6822F400625A60E2
:102638007B681B68DA6A7B681B6822F47002DA62BE
:102648007B681B68D96A7B68DB69013B1A057B6874
:102658001B680A43DA627B681B689A687B681B6898
:1026680022F400729A607B681B6899687B6893F80B
:1026780030305A027B681B680A439A607B681B6883
:102688009A687B681B6822F480629A607B681B6882
:1026980099687B685B699A027B681B680A439A6041
:1026A80000BF1437BD465DF8047B70470023014026
:1026B8000100000F80B483B000AF786000BF0C3712
:1026C800BD465DF8047B704780B485B000AF786084
:1026D8007B6803F00703FB600C4BDB68BB60BA68E0
:1026E8004FF6FF031340BB60FB681A02BB68134335
:1026F80043F0BF6343F40033BB60044ABB68D36054
:1027080000BF1437BD465DF8047B704700ED00E05C
:1027180080B400AF044BDB681B0A03F007031846BC
:10272800BD465DF8047B704700ED00E080B483B0DF
:1027380000AF0346FB7197F90730002B0BDBFB79E1
:1027480003F01F02074997F907305B09012000FAD7
:1027580002F241F8232000BF0C37BD465DF8047B28
:10276800704700BF00E100E080B483B000AF0346CB
:102778003960FB7197F90730002B0ADB3B68DAB246
:102788000C4997F907301201D2B20B4483F80023A1
:102798000AE03B68DAB20849FB7903F00F03043B0F
:1027A8001201D2B20B441A7600BF0C37BD465DF851
:1027B800047B704700E100E000ED00E080B489B0E0
:1027C80000AFF860B9607A60FB6803F00703FB614B
:1027D800FB69C3F10703042B28BF0423BB61FB6912
:1027E8000433062B02D9FB69033B00E000237B611D
:1027F8004FF0FF32BB6902FA03F3DA43BB681A40B1
:102808007B699A404FF0FF317B6901FA03F3D943A2
:102818007B680B40134318462437BD465DF8047B9C
:102828007047000080B582B000AF78607B68013BDC
:10283800B3F1807F01D301230FE00A4A7B68013B93
:1028480053600F214FF0FF30FFF78EFF054B00223A
:102858009A60044B07221A60002318460837BD46C1
:1028680080BD00BF10E000E080B582B000AF7860A6
:102878007868FFF729FF00BF0837BD4680BD80B5DF
:1028880086B000AF0346B9607A60FB7300237B61B2
:10289800FFF73EFF78617A68B9687869FFF78EFFBD
:1028A800024697F90F3011461846FFF75DFF00BF43
:1028B8001837BD4680BD80B582B000AF0346FB71B6
:1028C80097F907301846FFF731FF00BF0837BD46B4
:1028D80080BD80B582B000AF78607868FFF7A2FF4E
:1028E800034618460837BD4680BD000080B586B04F
:1028F80000AF786000237B61FFF79CF938617B6843
:10290800002B01D1012399E07B68022283F835204E
:102918007B68002283F834207B681B681A687B6810
:102928001B6822F001021A600FE0FFF783F90246E4
:102938003B69D31A052B08D97B6820225A657B6826
:10294800032283F83520032378E07B681B681B6823
:1029580003F00103002BE8D17B681B681B687B61CF
:102968007A69384B13407B617B685A687B689B683F
:102978001A437B68DB681A437B681B691A437B68C8
:102988005B691A437B689B691A437B68DB691A4356
:102998007B681B6A13437A6913437B617B685B6AB4
:1029A800042B07D17B68DA6A7B681B6B13437A694F
:1029B80013437B617B681B687A691A607B681B68B4
:1029C8005B697B617B6923F007037B617B685B6ADA
:1029D8007A6913437B617B685B6A042B17D17B6838
:1029E8009B6A7A6913437B617B68DB6A002B0ED094
:1029F800786800F07BFA0346002B08D07B684022F9
:102A08005A657B68012283F83520012316E07B682C
:102A18001B687A695A61786800F032FA0346FB60ED
:102A28007B68DB6D3F229A40FB689A607B680022D6
:102A38005A657B68012283F8352000231846183729
:102A4800BD4680BD3F8010F080B584B000AF78608F
:102A58007B689B6DFB60FFF7EDF8B8607B6893F8C7
:102A68003530DBB2022B08D07B6880225A657B6840
:102A7800002283F83420012352E07B681B681A681F
:102A88007B681B6822F016021A607B681B685A690B
:102A98007B681B6822F080025A617B681B6C002BE4
:102AA80003D17B689B6C002B07D07B681B681A6876
:102AB8007B681B6822F008021A607B681B681A682A
:102AC8007B681B6822F001021A6013E0FFF7B2F876
:102AD8000246BB68D31A052B0CD97B6820225A659D
:102AE8007B68032283F835207B68002283F8342032
:102AF800032315E07B681B681B6803F00103002BA8
:102B0800E4D17B68DB6D3F229A40FB689A607B6862
:102B1800012283F835207B68002283F834200023C3
:102B280018461037BD4680BD80B483B000AF7860CA
:102B38007B6893F83530DBB2022B04D07B688022A7
:102B48005A6501230CE07B68052283F835207B68F1
:102B58001B681A687B681B6822F001021A60002350
:102B680018460C37BD465DF8047B704780B586B0C3
:102B780000AF78600023BB608E4B1B688E4AA2FBB7
:102B880003239B0A7B617B689B6D3B613B691B68E8
:102B9800FB607B68DB6D08229A40FB681340002BC2
:102BA8001AD07B681B681B6803F00403002B13D042
:102BB8007B681B681A687B681B6822F004021A602D
:102BC8007B68DB6D08229A403B699A607B685B6D85
:102BD80043F001027B685A657B68DB6D01229A40ED
:102BE800FB681340002B12D07B681B685B6903F0FD
:102BF8008003002B0BD07B68DB6D01229A403B6978
:102C08009A607B685B6D43F002027B685A657B685B
:102C1800DB6D04229A40FB681340002B12D07B68BE
:102C28001B681B6803F00203002B0BD07B68DB6D6D
:102C380004229A403B699A607B685B6D43F004020A
:102C48007B685A657B68DB6D10229A40FB681340ED
:102C5800002B43D07B681B681B6803F00803002B1C
:102C68003CD07B68DB6D10229A403B699A607B6898
:102C78001B681B6803F48023002B18D07B681B6833
:102C88001B6803F40023002B08D17B681B6C002B06
:102C980024D07B681B6C786898471FE07B689B6C26
:102CA800002B1BD07B689B6C7868984716E07B6884
:102CB8001B681B6803F48073002B07D17B681B68B3
:102CC8001A687B681B6822F008021A607B681B6C14
:102CD800002B03D07B681B6C786898477B68DB6D9A
:102CE80020229A40FB681340002B00F08F807B68FD
:102CF8001B681B6803F01003002B00F087807B68BB
:102D0800DB6D20229A403B699A607B6893F83530E6
:102D1800DBB2052B36D17B681B681A687B681B6899
:102D280022F016021A607B681B685A697B681B6868
:102D380022F080025A617B681B6C002B03D17B68F0
:102D48009B6C002B07D07B681B681A687B681B6824
:102D580022F008021A607B68DB6D3F229A403B69CB
:102D68009A607B68012283F835207B68002283F80B
:102D780034207B681B6D002B7ED07B681B6D7868C8
:102D8800984779E07B681B681B6803F48023002B55
:102D98001DD07B681B681B6803F40023002B0DD132
:102DA8007B685B6C002B31D07B685B6C78689847DC
:102DB8002CE000BF04000020B5814E1B7B68DB6B54
:102DC800002B23D07B68DB6B786898471EE07B6814
:102DD8001B681B6803F48073002B0FD17B681B688A
:102DE8001A687B681B6822F010021A607B6801224F
:102DF80083F835207B68002283F834207B68DB6BFE
:102E0800002B03D07B68DB6B786898477B685B6D29
:102E1800002B32D07B685B6D03F00103002B22D0BE
:102E28007B68052283F835207B681B681A687B68F5
:102E38001B6822F001021A60BB680133BB607A6923
:102E48009A4207D37B681B681B6803F00103002BB9
:102E5800F2D100E000BF7B68012283F835207B684F
:102E6800002283F834207B68DB6C002B05D07B685C
:102E7800DB6C7868984700E000BF1837BD4680BD16
:102E880080B485B000AF78607B681B68DBB2103B0C
:102E9800144AA2FB03231B09FB60134AFB68134473
:102EA8001B781A467B68DA65FB68032B09D97B68AF
:102EB8001B6823F47F7323F003031A1D7B689A654C
:102EC80007E07B681B6823F47F7323F003037A68A9
:102ED80093657B689B6D18461437BD465DF8047B87
:102EE800704700BFABAAAAAADC62000880B485B00C
:102EF80000AF78600023FB737B689B6ABB607B68CC
:102F08009B69002B1FD1BB68032B56D801A252F82E
:102F180023F000BF2D2F00083F2F00082D2F000899
:102F2800C32F00087B68DB6A03F08073002B46D050
:102F38000123FB7343E07B68DB6AB3F1C07F40D1B8
:102F48000123FB733DE07B689B69B3F5005F21D1EA
:102F5800BB68032B37D801A252F823F0752F00085D
:102F68007B2F0008752F00088D2F00080123FB73A5
:102F780030E07B68DB6A03F08073002B25D00123E7
:102F8800FB7322E07B68DB6AB3F1C07F1FD10123AA
:102F9800FB731CE0BB68022B03D9BB68032B03D06F
:102FA80018E00123FB7315E07B68DB6A03F080738C
:102FB800002B0ED00123FB730BE000BF0AE000BF1B
:102FC80008E000BF06E000BF04E000BF02E000BF69
:102FD80000E000BFFB7B18461437BD465DF8047B54
:102FE800704700BF80B489B000AF786039600023B3
:102FF8007B6100233B610023BB610023FB6159E136
:103008000122FB6902FA03F37B613B681B687A695A
:1030180013403B613A697B699A4240F048813B68BA
:103028005B6803F00303012B05D03B685B6803F082
:103038000303022B30D17B689B68BB61FB695B0093
:10304800032202FA03F3DB43BA691340BB613B680E
:10305800DA68FB695B0002FA03F3BA691343BB61E0
:103068007B68BA699A607B685B68BB610122FB690F
:1030780002FA03F3DB43BA691340BB613B685B6840
:103088001B0903F00102FB6902FA03F3BA6913434F
:10309800BB617B68BA695A603B685B6803F00303ED
:1030A800032B17D07B68DB68BB61FB695B000322DD
:1030B80002FA03F3DB43BA691340BB613B689A68C1
:1030C800FB695B0002FA03F3BA691343BB617B68CF
:1030D800BA69DA603B685B6803F00303022B23D10B
:1030E800FB69DA087B68083253F82230BB61FB6958
:1030F80003F007039B000F2202FA03F3DB43BA69CC
:103108001340BB613B681A69FB6903F007039B0026
:1031180002FA03F3BA691343BB61FB69DA087B68F7
:103128000832B96943F822107B681B68BB61FB69E8
:103138005B00032202FA03F3DB43BA691340BB6165
:103148003B685B6803F00302FB695B0002FA03F368
:10315800BA691343BB617B68BA691A603B685B68EC
:1031680003F44033002B00F0A2800023FB60574B90
:103178005B6C564A43F480435364544B5B6C03F4D2
:103188008043FB60FB68524AFB699B08023352F894
:103198002330BB61FB6903F003039B000F2202FA93
:1031A80003F3DB43BA691340BB617B68494A934226
:1031B80019D07B68484A934213D07B68474A9342A8
:1031C8000DD07B68464A934207D07B68454A9342B4
:1031D80001D1042308E0072306E0032304E00223C7
:1031E80002E0012300E00023FA6902F003029200E2
:1031F8009340BA691343BB613549FB699B080233A5
:10320800BA6941F82320384B9B68BB613B69DB43B3
:10321800BA691340BB613B685B6803F48013002BF9
:1032280003D0BA693B691343BB612F4ABB699360FA
:103238002D4BDB68BB613B69DB43BA691340BB615B
:103248003B685B6803F40013002B03D0BA693B6941
:103258001343BB61244ABB69D360234B5B68BB61E2
:103268003B69DB43BA691340BB613B685B6803F4A5
:103278000033002B03D0BA693B691343BB611A4A78
:10328800BB695360184B1B68BB613B69DB43BA6978
:103298001340BB613B685B6803F48033002B03D0A9
:1032A800BA693B691343BB610F4ABB691360FB6989
:1032B8000133FB61FB690F2B7FF6A2AE00BF00BF95
:1032C8002437BD465DF8047B704700BF00380240D4
:1032D800003801400000024000040240000802409B
:1032E800000C024000100240003C014080B485B050
:1032F80000AF78600B467B807B681A697B88134037
:10330800002B02D00123FB7301E00023FB73FB7B3E
:1033180018461437BD465DF8047B704780B483B007
:1033280000AF78600B467B8013467B707B78002B60
:1033380003D07A887B689A6103E07B881A047B68EB
:103348009A6100BF0C37BD465DF8047B70470000EA
:1033580080B586B000AF78607B68002B01D101236F
:1033680067E27B681B6803F00103002B75D0884B6C
:103378009B6803F00C03042B0CD0854B9B6803F06F
:103388000C03082B12D1824B5B6803F48003B3F55E
:10339800800F0BD17E4B1B6803F40033002B5BD0EE
:1033A8007B685B68002B57D1012342E27B685B682E
:1033B800B3F5803F06D1764B1B68754A43F48033DA
:1033C80013601DE07B685B68B3F5A02F0CD1704BD0
:1033D8001B686F4A43F4802313606D4B1B686C4A6B
:1033E80043F4803313600BE0694B1B68684A23F48D
:1033F80080331360664B1B68654A23F4802313608F
:103408007B685B68002B13D0FEF714FC386108E07A
:10341800FEF710FC02463B69D31A642B01D903233B
:1034280007E25B4B1B6803F40033002BF0D014E079
:10343800FEF700FC386108E0FEF7FCFB02463B693A
:10344800D31A642B01D90323F3E1514B1B6803F40E
:103458000033002BF0D100E000BF7B681B6803F04D
:103468000203002B63D04A4B9B6803F00C03002B2C
:103478000BD0474B9B6803F00C03082B1CD1444B23
:103488005B6803F48003002B16D1414B1B6803F0E3
:103498000203002B05D07B68DB68012B01D00123D8
:1034A800C7E13B4B1B6823F0F8027B681B69DB0014
:1034B800374913430B603AE07B68DB68002B20D068
:1034C800344B01221A60FEF7B5FB386108E0FEF7BD
:1034D800B1FB02463B69D31A022B01D90323A8E1A9
:1034E8002B4B1B6803F00203002BF0D0284B1B6802
:1034F80023F0F8027B681B69DB00254913430B6046
:1035080015E0244B00221A60FEF794FB386108E0AE
:10351800FEF790FB02463B69D31A022B01D903231D
:1035280087E11B4B1B6803F00203002BF0D17B687B
:103538001B6803F00803002B36D07B685B69002BFF
:1035480016D0154B01221A60FEF774FB386108E0AB
:10355800FEF770FB02463B69D31A022B01D90323FD
:1035680067E10B4B5B6F03F00203002BF0D01BE00D
:10357800094B00221A60FEF75DFB38610EE0FEF78A
:1035880059FB02463B69D31A022B07D9032350E1A2
:103598000038024000004742800E4742884B5B6F6C
:1035A80003F00203002BEAD17B681B6803F00403D5
:1035B800002B00F097800023FB75814B1B6C03F0F8
:1035C8008053002B0FD10023BB607D4B1B6C7C4AC2
:1035D80043F0805313647A4B1B6C03F08053BB6039
:1035E800BB680123FB75774B1B6803F48073002BC2
:1035F80018D1744B1B68734A43F480731360FEF749
:1036080019FB386108E0FEF715FB02463B69D31A3F
:10361800022B01D903230CE16A4B1B6803F4807366
:10362800002BF0D07B689B68012B06D1644B1B6F85
:10363800634A43F0010313671CE07B689B68052B12
:103648000CD15F4B1B6F5E4A43F0040313675C4B5E
:103658001B6F5B4A43F0010313670BE0584B1B6F6A
:10366800574A23F001031367554B1B6F544A23F045
:10367800040313677B689B68002B15D0FEF7DAFA02
:1036880038610AE0FEF7D6FA02463B69D31A41F2DE
:103698008832934201D90323CBE0494B1B6F03F0D7
:1036A8000203002BEED014E0FEF7C4FA38610AE0FA
:1036B800FEF7C0FA02463B69D31A41F288329342B8
:1036C80001D90323B5E03E4B1B6F03F00203002B27
:1036D800EED1FB7D012B05D1394B1B6C384A23F009
:1036E800805313647B689B69002B00F0A180344BE6
:1036F8009B6803F00C03082B5CD07B689B69022B4A
:1037080041D1314B00221A60FEF794FA386108E083
:10371800FEF790FA02463B69D31A022B01D903231C
:1037280087E0274B1B6803F00073002BF0D17B6800
:10373800DA697B681B6A1A437B685B6A9B011A43D8
:103748007B689B6A5B08013B1B041A437B68DB6A46
:103758001B061B4913434B601B4B01221A60FEF7E3
:1037680069FA386108E0FEF765FA02463B69D31A40
:10377800022B01D903235CE0114B1B6803F0007393
:10378800002BF0D054E0104B00221A60FEF752FADA
:10379800386108E0FEF74EFA02463B69D31A022B5D
:1037A80001D9032345E0064B1B6803F00073002B87
:1037B800F0D13DE07B689B69012B07D1012338E0FC
:1037C8000038024000700040600047421B4B5B68B5
:1037D800FB607B689B69012B28D0FB6803F480029F
:1037E8007B68DB699A4221D1FB6803F03F027B6862
:1037F8001B6A9A421AD1FA6847F6C07313407A686E
:10380800526A9201934211D1FB6803F440327B68FB
:103818009B6A5B08013B1B049A4207D1FB6803F0D3
:1038280070627B68DB6A1B069A4201D0012300E0C4
:10383800002318461837BD4680BD00BF0038024037
:1038480080B584B000AF786039607B68002B01D107
:103858000123CCE0684B1B6803F007033A689A42DF
:103868000CD9654B3A68D2B21A70634B1B6803F0E7
:1038780007033A689A4201D00123B8E07B681B68C5
:1038880003F00203002B20D07B681B6803F00403BD
:10389800002B05D0594B9B68584A43F4E05393607A
:1038A8007B681B6803F00803002B05D0534B9B680B
:1038B800524A43F460439360504B9B6823F0F002F4
:1038C8007B689B684D4913438B607B681B6803F0DA
:1038D8000103002B44D07B685B68012B07D1474B61
:1038E8001B6803F40033002B19D101237FE07B68A8
:1038F8005B68022B03D07B685B68032B07D13F4BC7
:103908001B6803F00073002B09D101236FE03B4BC8
:103918001B6803F00203002B01D1012367E0374B3A
:103928009B6823F003027B685B68344913438B6010
:10393800FEF780F9F8600AE0FEF77CF90246FB68BA
:10394800D31A41F28832934201D903234FE02B4B1B
:103958009B6803F00C027B685B689B009A42EBD182
:10396800254B1B6803F007033A689A420CD2224B96
:103978003A68D2B21A70204B1B6803F007033A6802
:103988009A4201D0012332E07B681B6803F00403EC
:10399800002B08D0194B9B6823F4E0527B68DB6846
:1039A800164913438B607B681B6803F00803002BE0
:1039B80009D0124B9B6823F460427B681B69DB00CB
:1039C8000E4913438B6000F021F802460B4B9B68AD
:1039D8001B0903F00F030A49CB5C22FA03F3094AD7
:1039E8001360094B1B681846FEF7E0F800231846D9
:1039F8001037BD4680BD00BF003C02400038024081
:103A0800C462000804000020080000202DE9B04F1F
:103A180090B000AF00237B630023FB6300233B636C
:103A28000023BB63594B9B6803F00C03082B0DD094
:103A3800082B00F2A180002B02D0042B03D09BE0BE
:103A4800534BBB639BE0534BBB6398E04F4B5B68A6
:103A580003F03F037B634D4B5B6803F48003002B4B
:103A680028D04A4B5B689B0900223B627A623B6A1A
:103A7800C3F308000021474B03FB01F2002300FBBE
:103A880003F31344434AA0FB0212FA620A46BA62DD
:103A9800FA6A1344FB627B6B0022BB61FA61D7E9C7
:103AA8000623D7E90A01FCF799FE02460B4613469E
:103AB800FB6353E0354B5B689B0900223B617A61ED
:103AC8003B69C3F3080A4FF0000B52465B464FF0C0
:103AD80000004FF00001590141EAD261500102464D
:103AE8000B46B2EB0A0863EB0B094FF000024FF0EC
:103AF80000034FEA891343EA98634FEA8812B2EB4E
:103B0800080463EB09054FF000024FF00003EB00D7
:103B180043EA5473E20014461D4614EB0A033B6063
:103B280045EB0B037B604FF000024FF00003D7E931
:103B3800004529468B02214643EA915321468A02D1
:103B4800104619467B6B0022BB60FA60D7E9022356
:103B5800FCF744FE02460B461346FB630B4B5B68BF
:103B68001B0C03F0030301335B003B63FA6B3B6BF5
:103B7800B2FBF3F3BB6302E0054BBB6300BFBB6B57
:103B880018464037BD46BDE8B08F00BF0038024038
:103B98000024F40040787D0180B400AF034B1B681B
:103BA8001846BD465DF8047B704700BF040000203E
:103BB80080B500AFFFF7F0FF0246054B9B689B0AF4
:103BC80003F007030349CB5C22FA03F3184680BDD0
:103BD80000380240D462000880B500AFFFF7DCFF70
:103BE8000246054B9B685B0B03F007030349CB5C5C
:103BF80022FA03F3184680BD00380240D462000858
:103C080080B582B000AF78607B68002B01D10123BA
:103C180041E07B6893F83D30DBB2002B06D17B682E
:103C2800002283F83C207868FDF702FE7B680222B8
:103C380083F83D207B681A687B6804331946104670
:103C480000F052FE7B68012283F846207B6801223F
:103C580083F83E207B68012283F83F207B6801229D
:103C680083F840207B68012283F841207B68012289
:103C780083F842207B68012283F843207B68012275
:103C880083F844207B68012283F845207B68012261
:103C980083F83D20002318460837BD4680BD80B410
:103CA80083B000AF78607B681B68DA687B681B6844
:103CB80022F00102DA607B681B681A6A41F211136C
:103CC8001340002B0FD17B681B681A6A40F24443EB
:103CD8001340002B07D17B681B681A687B681B6838
:103CE80022F001021A607B68012283F83D2000233C
:103CF80018460C37BD465DF8047B704780B582B026
:103D080000AF78607B68002B01D1012341E07B681C
:103D180093F83D30DBB2002B06D17B68002283F894
:103D28003C20786800F039F87B68022283F83D204F
:103D38007B681A687B6804331946104600F0D4FD86
:103D48007B68012283F846207B68012283F83E20A5
:103D58007B68012283F83F207B68012283F840209A
:103D68007B68012283F841207B68012283F8422086
:103D78007B68012283F843207B68012283F8442072
:103D88007B68012283F845207B68012283F83D2067
:103D9800002318460837BD4680BD80B483B000AF05
:103DA800786000BF0C37BD465DF8047B70470000A3
:103DB80080B584B000AF786039603B68002B09D1CA
:103DC8007B6893F83E30DBB2012B14BF012300233C
:103DD800DBB222E03B68042B09D17B6893F83F30C3
:103DE800DBB2012B14BF01230023DBB215E03B68D3
:103DF800082B09D17B6893F84030DBB2012B14BF44
:103E080001230023DBB208E07B6893F84130DBB282
:103E1800012B14BF01230023DBB2002B01D00123A7
:103E280068E03B68002B04D17B68022283F83E20BF
:103E380013E03B68042B04D17B68022283F83F20FF
:103E48000BE03B68082B04D17B68022283F84020F2
:103E580003E07B68022283F841207B681B6801220B
:103E68003968184601F010F97B681B68234A9342A9
:103E780007D17B681B685A6C7B681B6842F4004258
:103E88005A647B681B681D4A934218D07B681B687C
:103E9800B3F1804F13D07B681B68194A93420ED048
:103EA8007B681B68174A934209D07B681B68164ACF
:103EB800934204D07B681B68144A934211D17B68F3
:103EC8001B689B6803F00703FB60FB68062B10D098
:103ED8007B681B681A687B681B6842F001021A60DD
:103EE80007E07B681B681A687B681B6842F0010260
:103EF8001A60002318461037BD4680BD00000140F7
:103F08000004004000080040000C00400040014050
:103F180080B582B000AF78607B68002B01D10123A7
:103F280041E07B6893F83D30DBB2002B06D17B681B
:103F3800002283F83C20786800F039F87B68022278
:103F480083F83D207B681A687B680433194610465D
:103F580000F0CAFC7B68012283F846207B680122B6
:103F680083F83E207B68012283F83F207B6801228A
:103F780083F840207B68012283F841207B68012276
:103F880083F842207B68012283F843207B68012262
:103F980083F844207B68012283F845207B6801224E
:103FA80083F83D20002318460837BD4680BD80B4FD
:103FB80083B000AF786000BF0C37BD465DF8047B66
:103FC8007047000080B584B000AF78603960002386
:103FD800FB733B68002B04D17B6893F83E30DBB25F
:103FE80013E03B68042B04D17B6893F83F30DBB2C5
:103FF8000BE03B68082B04D17B6893F84030DBB2B8
:1040080003E07B6893F84130DBB2BB733B68002B5D
:1040180004D17B6893F84230DBB213E03B68042B91
:1040280004D17B6893F84330DBB20BE03B68082B84
:1040380004D17B6893F84430DBB203E07B6893F8E3
:104048004530DBB27B73BB7B012B02D17B7B012B21
:1040580001D00123C2E03B68002B04D17B68022217
:1040680083F83E2013E03B68042B04D17B680222CE
:1040780083F83F200BE03B68082B04D17B680222C1
:1040880083F8402003E07B68022283F841203B68E4
:10409800002B04D17B68022283F8422013E03B689E
:1040A800042B04D17B68022283F843200BE03B6891
:1040B800082B04D17B68022283F8442003E07B6844
:1040C800022283F845203B680C2B41D801A252F804
:1040D80023F000BF11410008594100085941000868
:1040E8005941000823410008594100085941000876
:1040F8005941000835410008594100085941000854
:1041080059410008474100087B681B68DA687B68EA
:104118001B6842F00202DA601DE07B681B68DA68FF
:104128007B681B6842F00402DA6014E07B681B6855
:10413800DA687B681B6842F00802DA600BE07B688B
:104148001B68DA687B681B6842F01002DA6002E0DC
:104158000123FB7300BFFB7B002B3ED17B681B68F0
:1041680001223968184600F08FFF7B681B681D4ADA
:10417800934218D07B681B68B3F1804F13D07B68DB
:104188001B68194A93420ED07B681B68174A9342F2
:1041980009D07B681B68164A934204D07B681B6869
:1041A800144A934211D17B681B689B6803F007038C
:1041B800BB60BB68062B10D07B681B681A687B68DD
:1041C8001B6842F001021A6007E07B681B681A68E6
:1041D8007B681B6842F001021A60FB7B18461037A7
:1041E800BD4680BD000001400004004000080040BA
:1041F800000C00400040014080B584B000AF7860FA
:104208007B681B68DB68FB607B681B681B69BB609D
:10421800BB6803F00203002B20D0FB6803F0020305
:10422800002B1BD07B681B686FF002021A617B6849
:1042380001221A777B681B689B6903F00303002B34
:1042480003D07868FCF70CFE05E0786800F02EFBD8
:10425800786800F035FB7B6800221A77BB6803F0AA
:104268000403002B20D0FB6803F00403002B1BD0B1
:104278007B681B686FF004021A617B6802221A7758
:104288007B681B689B6903F44073002B03D0786834
:10429800FCF7E6FD05E0786800F008FB786800F0B8
:1042A8000FFB7B6800221A77BB6803F00803002B1A
:1042B80020D0FB6803F00803002B1BD07B681B6829
:1042C8006FF008021A617B6804221A777B681B6802
:1042D800DB6903F00303002B03D07868FCF7C0FD0B
:1042E80005E0786800F0E2FA786800F0E9FA7B689F
:1042F80000221A77BB6803F01003002B20D0FB685C
:1043080003F01003002B1BD07B681B686FF01002B2
:104318001A617B6808221A777B681B68DB6903F4DB
:104328004073002B03D07868FCF79AFD05E07868A5
:1043380000F0BCFA786800F0C3FA7B6800221A77AC
:10434800BB6803F00103002B0CD0FB6803F00103EA
:10435800002B07D07B681B686FF001021A61786830
:10436800FDF732F8BB6803F08003002B0CD0FB6824
:1043780003F08003002B07D07B681B686FF0800276
:104388001A61786800F01EFFBB6803F04003002B39
:104398000CD0FB6803F04003002B07D07B681B6838
:1043A8006FF040021A61786800F094FABB6803F075
:1043B8002003002B0CD0FB6803F02003002B07D050
:1043C8007B681B686FF020021A61786800F0F0FEC5
:1043D80000BF1037BD4680BD80B586B000AFF8601D
:1043E800B9607A600023FB75FB6893F83C30012BB9
:1043F80001D1022388E0FB68012283F83C207B6816
:10440800002B1BD1FB681868BB681968BB685A6821
:10441800BB68DB6800F080FCFB681B689A69FB6876
:104428001B6822F00C029A61FB681B689969BB68DB
:104438009A68FB681B680A439A6160E07B68042BF2
:104448001CD1FB681868BB681968BB685A68BB68E8
:10445800DB6800F0F8FCFB681B689A69FB681B685E
:1044680022F440629A61FB681B689969BB689B6883
:104478001A02FB681B680A439A6140E07B68082BB4
:104488001BD1FB681868BB681968BB685A68BB68A9
:10449800DB6800F045FDFB681B68DA69FB681B6890
:1044A80022F00C02DA61FB681B68D969BB689A685C
:1044B800FB681B680A43DA6121E07B680C2B1CD17E
:1044C800FB681868BB681968BB685A68BB68DB6812
:1044D80000F062FDFB681B68DA69FB681B6822F460
:1044E8004062DA61FB681B68D969BB689B681A027D
:1044F800FB681B680A43DA6101E00123FB75FB686E
:10450800002283F83C20FB7D18461837BD4680BD45
:1045180080B586B000AFF860B9607A600023FB759B
:10452800FB6893F83C30012B01D10223AEE0FB6815
:10453800012283F83C207B680C2B00F29F8001A2AB
:1045480052F823F081450008854600088546000892
:1045580085460008C14500088546000885460008CC
:104568008546000803460008854600088546000879
:104578008546000843460008FB681B68B96818466A
:1045880000F03EFAFB681B689A69FB681B6842F0FA
:1045980008029A61FB681B689A69FB681B6822F02D
:1045A80004029A61FB681B689969BB681A69FB6811
:1045B8001B680A439A6164E0FB681B68B96818467F
:1045C80000F084FAFB681B689A69FB681B6842F470
:1045D80000629A61FB681B689A69FB681B6822F491
:1045E80080629A61FB681B689969BB681B691A023B
:1045F800FB681B680A439A6143E0FB681B68B9685B
:10460800184600F0CFFAFB681B68DA69FB681B687C
:1046180042F00802DA61FB681B68DA69FB681B680C
:1046280022F00402DA61FB681B68D969BB681A6961
:10463800FB681B680A43DA6123E0FB681B68B968FA
:10464800184600F019FBFB681B68DA69FB681B68F1
:1046580042F40062DA61FB681B68DA69FB681B6870
:1046680022F48062DA61FB681B68D969BB681B6940
:104678001A02FB681B680A43DA6102E00123FB7532
:1046880000BFFB68002283F83C20FB7D18461837E2
:10469800BD4680BD80B584B000AF78603960002326
:1046A800FB737B6893F83C30012B01D10223B4E003
:1046B8007B68012283F83C207B68022283F83D2036
:1046C8007B681B689B68BB60BB6823F07703BB6093
:1046D800BB6823F47F43BB607B681B68BA689A6039
:1046E8003B681B68B3F5005F3ED0B3F5005F00F28E
:1046F8008780B3F5805F00F08680B3F5805F7FD850
:10470800702B1AD0702B7BD8602B50D0602B77D8A9
:10471800502B3CD0502B73D8402B58D0402B6FD8FF
:10472800302B64D0302B6BD8202B60D0202B67D84F
:10473800002B5CD0102B5AD062E07B6818683B686D
:1047480099683B685A683B68DB6800F07DFC7B68C9
:104758001B689B68BB60BB6843F07703BB607B68E2
:104768001B68BA689A604FE07B6818683B6899686C
:104778003B685A683B68DB6800F066FC7B681B682E
:104788009A687B681B6842F480429A603CE07B68C8
:1047980018683B6859683B68DB681A4600F024FBD8
:1047A8007B681B685021184600F033FC2CE07B68BE
:1047B80018683B6859683B68DB681A4600F080FB5C
:1047C8007B681B686021184600F023FC1CE07B68AE
:1047D80018683B6859683B68DB681A4600F004FBB8
:1047E8007B681B684021184600F013FC0CE07B68CE
:1047F8001A683B681B681946104600F00AFC03E07B
:104808000123FB7300E000BF7B68012283F83D2091
:104818007B68002283F83C20FB7B18461037BD4696
:1048280080BD000080B485B000AF78603960002397
:10483800FB603B680C2B31D801A252F823F000BF73
:104848007D480008A5480008A5480008A5480008B4
:1048580087480008A5480008A5480008A54800089A
:1048680091480008A5480008A5480008A548000880
:104878009B4800087B681B685B6BFB600FE07B68EC
:104888001B689B6BFB600AE07B681B68DB6BFB604B
:1048980005E07B681B681B6CFB6000E000BFFB68E1
:1048A80018461437BD465DF8047B704780B483B062
:1048B80000AF786000BF0C37BD465DF8047B7047D9
:1048C80080B483B000AF786000BF0C37BD465DF898
:1048D800047B704780B483B000AF786000BF0C37AA
:1048E800BD465DF8047B704780B485B000AF786042
:1048F80039607B681B68FB607B683A4A93420FD03B
:104908007B68B3F1804F0BD07B68374A934207D05E
:104918007B68364A934203D07B68354A934208D174
:10492800FB6823F07003FB603B685B68FA6813431D
:10493800FB607B682B4A93421BD07B68B3F1804FA6
:1049480017D07B68284A934213D07B68274A934242
:104958000FD07B68264A93420BD07B68254A934246
:1049680007D07B68244A934203D07B68234A93424A
:1049780008D1FB6823F44073FB603B68DB68FA6886
:104988001343FB60FB6823F080023B685B691343B9
:10499800FB607B68FA681A603B689A687B68DA6231
:1049A8003B681A687B689A627B680E4A934203D117
:1049B8003B681A697B681A637B6801225A617B68C5
:1049C8001B6903F00103012B05D17B681B6923F0E8
:1049D80001027B681A6100BF1437BD465DF8047B8D
:1049E800704700BF0000014000040040000800407C
:1049F800000C0040004001400044014000480140D4
:104A080080B487B000AF786039607B681B6A7B61CF
:104A18007B681B6A23F001027B681A627B685B680B
:104A28003B617B689B69FB60FB6823F07003FB605C
:104A3800FB6823F00303FB603B681B68FA681343B9
:104A4800FB607B6923F002037B613B689B687A69A2
:104A580013437B617B681C4A93420CD17B6923F02A
:104A680008037B613B68DB687A6913437B617B6978
:104A780023F004037B617B68134A934211D13B699D
:104A880023F480733B613B6923F400733B613B680B
:104A98005B693A6913433B613B689B693A69134315
:104AA8003B617B683A695A607B68FA689A613B683F
:104AB8005A687B685A637B687A691A6200BF1C3738
:104AC800BD465DF8047B70470000014080B487B0A4
:104AD80000AF786039607B681B6A7B617B681B6A02
:104AE80023F010027B681A627B685B683B617B6815
:104AF8009B69FB60FB6823F4E043FB60FB6823F4DD
:104B08004073FB603B681B681B02FA681343FB6039
:104B18007B6923F020037B613B689B681B017A69F2
:104B280013437B617B681E4A93420DD17B6923F056
:104B380080037B613B68DB681B017A6913437B61F7
:104B48007B6923F040037B617B68154A934213D14C
:104B58003B6923F480633B613B6923F400633B6159
:104B68003B685B699B003A6913433B613B689B69FF
:104B78009B003A6913433B617B683A695A607B68DA
:104B8800FA689A613B685A687B689A637B687A69B5
:104B98001A6200BF1C37BD465DF8047B704700BF32
:104BA8000000014080B487B000AF786039607B684E
:104BB8001B6A7B617B681B6A23F480727B681A62BC
:104BC8007B685B683B617B68DB69FB60FB6823F0A3
:104BD8007003FB60FB6823F00303FB603B681B6802
:104BE800FA681343FB607B6923F400737B613B68BD
:104BF8009B681B027A6913437B617B681D4A934259
:104C08000DD17B6923F400637B613B68DB681B0281
:104C18007A6913437B617B6923F480637B617B68DA
:104C2800144A934213D13B6923F480533B613B6997
:104C380023F400533B613B685B691B013A691343EA
:104C48003B613B689B691B013A6913433B617B6885
:104C58003A695A607B68FA68DA613B685A687B6827
:104C6800DA637B687A691A6200BF1C37BD465DF853
:104C7800047B70470000014080B487B000AF7860C3
:104C880039607B681B6A3B617B681B6A23F480522E
:104C98007B681A627B685B687B617B68DB69FB60A9
:104CA800FB6823F4E043FB60FB6823F44073FB607C
:104CB8003B681B681B02FA681343FB603B6923F4DB
:104CC80000533B613B689B681B033A6913433B6194
:104CD8007B68104A934209D17B6923F480437B6146
:104CE8003B685B699B017A6913437B617B687A69DE
:104CF8005A607B68FA68DA613B685A687B681A64AC
:104D08007B683A691A6200BF1C37BD465DF8047BB0
:104D1800704700BF0000014080B487B000AFF86062
:104D2800B9607A603B60FB681B6A3B61FB681B6A81
:104D380023F00102FB681A62FB689B697B61FB68D0
:104D4800244A934213D0FB68B3F1804F0FD0FB681D
:104D5800214A93420BD0FB68204A934207D0FB6854
:104D68001F4A934203D0FB681E4A934201D1012394
:104D780000E00023002B08D07B6923F003037B614C
:104D88007A697B6813437B6103E07B6943F0010325
:104D98007B617B6923F0F0037B613B681B01DBB21D
:104DA8007A6913437B613B6923F00A033B61BB6863
:104DB80003F00A033A6913433B61FB687A699A6115
:104DC800FB683A691A6200BF1C37BD465DF8047B70
:104DD800704700BF00000140000400400008004088
:104DE800000C00400040014080B487B000AFF8607C
:104DF800B9607A60FB681B6A7B61FB681B6A23F0F9
:104E08000102FB681A62FB689B693B613B6923F0FE
:104E1800F0033B617B681B013A6913433B617B6983
:104E280023F00A037B617A69BB6813437B61FB68E3
:104E38003A699A61FB687A691A6200BF1C37BD46F5
:104E48005DF8047B704780B487B000AFF860B96044
:104E58007A603B60FB681B6A7B61FB681B6A23F016
:104E68001002FB681A62FB689B693B613B6923F48B
:104E780040733B617B681B023A6913433B613B69A2
:104E880023F470433B613B681B039BB23A691343AD
:104E98003B617B6923F0A0037B61BB681B0103F0C6
:104EA800A0037A6913437B61FB683A699A61FB68DE
:104EB8007A691A6200BF1C37BD465DF8047B7047EB
:104EC80080B487B000AFF860B9607A60FB681B6A8D
:104ED8007B61FB681B6A23F01002FB681A62FB689F
:104EE8009B693B613B6923F470433B617B681B030F
:104EF8003A6913433B617B6923F0A0037B61BB687C
:104F08001B017A6913437B61FB683A699A61FB6804
:104F18007A691A6200BF1C37BD465DF8047B70478A
:104F280080B487B000AFF860B9607A603B60FB6816
:104F38001B6A7B61FB681B6A23F48072FB681A6238
:104F4800FB68DB693B613B6923F003033B613A691A
:104F58007B6813433B613B6923F0F0033B613B688B
:104F68001B01DBB23A6913433B617B6923F420637D
:104F78007B61BB681B0203F420637A6913437B617E
:104F8800FB683A69DA61FB687A691A6200BF1C3704
:104F9800BD465DF8047B704780B487B000AFF86009
:104FA800B9607A603B60FB681B6A7B61FB681B6ABF
:104FB80023F48052FB681A62FB68DB693B613B693A
:104FC80023F440733B617B681B023A6913433B61DE
:104FD8003B6923F470433B613B681B039BB23A690E
:104FE80013433B617B6923F420437B61BB681B034C
:104FF80003F420437A6913437B61FB683A69DA61F9
:10500800FB687A691A6200BF1C37BD465DF8047BED
:10501800704780B485B000AF786039607B689B6862
:10502800FB60FB6823F07003FB603A68FB6813437E
:1050380043F00703FB607B68FA689A6000BF143787
:10504800BD465DF8047B704780B487B000AFF86058
:10505800B9607A603B60FB689B687B617B6923F47D
:105068007F437B613B681A027B681A43BB68134322
:105078007A6913437B61FB687A699A6000BF1C37C1
:10508800BD465DF8047B704780B487B000AFF86018
:10509800B9607A60BB6803F01F03012202FA03F3C8
:1050A8007B61FB681A6A7B69DB431A40FB681A62FA
:1050B800FB681A6ABB6803F01F03796801FA03F3F7
:1050C8001A43FB681A6200BF1C37BD465DF8047BB3
:1050D8007047000080B485B000AF786039607B68A5
:1050E80093F83C30012B01D1022350E07B68012268
:1050F80083F83C207B68022283F83D207B681B688C
:105108005B68FB607B681B689B68BB60FB6823F07F
:105118007003FB603B681B68FA681343FB607B689D
:105128001B68FA685A607B681B681C4A934218D04F
:105138007B681B68B3F1804F13D07B681B68184AE3
:1051480093420ED07B681B68164A934209D07B684D
:105158001B68154A934204D07B681B68134A934224
:105168000CD1BB6823F08003BB603B685B68BA68FE
:105178001343BB607B681B68BA689A607B6801222E
:1051880083F83D207B68002283F83C2000231846E2
:105198001437BD465DF8047B704700BF000001402E
:1051A8000004004000080040000C0040004001409E
:1051B80080B483B000AF786000BF0C37BD465DF89F
:1051C800047B704780B483B000AF786000BF0C37B1
:1051D800BD465DF8047B704780B582B000AF78604B
:1051E8007B68002B01D1012342E07B6893F84130B2
:1051F800DBB2002B06D17B68002283F84020786858
:10520800FCF738FC7B68242283F841207B681B6804
:10521800DA687B681B6822F40052DA60786800F06C
:10522800DBFC7B681B681A697B681B6822F4904268
:105238001A617B681B685A697B681B6822F02A021E
:105248005A617B681B68DA687B681B6842F4005205
:10525800DA607B6800225A647B68202283F8412048
:105268007B68202283F842207B6800225A6300234F
:1052780018460837BD4680BD80B584B000AFF860D9
:10528800B9601346FB80FB6893F84230DBB2202BF1
:1052980012D1BB68002B02D0FB88002B01D101235F
:1052A8000BE0FB6800221A63FB881A46B968F868A5
:1052B80000F0BAFA034600E0022318461037BD464C
:1052C80080BD000080B5BAB000AF78607B681B680D
:1052D8001B68C7F8E4307B681B68DB68C7F8E030F8
:1052E8007B681B685B69C7F8DC300023C7F8D830D7
:1052F8000023C7F8D430D7F8E43003F00F03C7F819
:10530800D830D7F8D830002B0FD1D7F8E43003F0D5
:105318002003002B09D0D7F8E03003F02003002B3E
:1053280003D0786800F099FB5BE2D7F8D830002BFF
:1053380000F0DE80D7F8DC3003F00103002B06D143
:10534800D7F8E03003F49073002B00F0D180D7F841
:10535800E43003F00103002B0BD0D7F8E03003F45E
:105368008073002B05D07B685B6C43F001027B687F
:105378005A64D7F8E43003F00403002B0BD0D7F8B5
:10538800DC3003F00103002B05D07B685B6C43F035
:1053980002027B685A64D7F8E43003F00203002B5A
:1053A8000BD0D7F8DC3003F00103002B05D07B6865
:1053B8005B6C43F004027B685A64D7F8E43003F06E
:1053C8000803002B11D0D7F8E03003F02003002B9E
:1053D80005D1D7F8DC3003F00103002B05D07B683A
:1053E8005B6C43F008027B685A647B685B6C002B3B
:1053F80000F0F281D7F8E43003F02003002B08D046
:10540800D7F8E03003F02003002B02D0786800F0D2
:1054180024FB7B681B685B6903F04003402B0CBFCF
:1054280001230023DBB2C7F8D4307B685B6C03F040
:105438000803002B03D1D7F8D430002B4FD078685D
:1054480000F02CFA7B681B685B6903F04003402B73
:1054580041D17B681B681433C7F89C30D7F89C305F
:1054680053E8003FC7F89830D7F8983023F0400346
:10547800C7F8D0307B681B681433D7F8D020C7F83A
:10548800A820C7F8A430D7F8A410D7F8A82041E876
:105498000023C7F8A030D7F8A030002BD9D17B68FB
:1054A800DB6B002B13D07B68DB6B7E4A1A657B684D
:1054B800DB6B1846FDF738FB0346002B16D07B68DC
:1054C800DB6B1B6D7A68D26B104698470EE07868E4
:1054D80000F094F90AE0786800F090F906E078683E
:1054E80000F08CF97B6800225A6475E100BF73E113
:1054F8007B681B6B012B40F04F81D7F8E43003F039
:105508001003002B00F04881D7F8E03003F01003B7
:10551800002B00F041810023BB607B681B681B687F
:10552800BB607B681B685B68BB60BB687B681B688B
:105538005B6903F04003402B40F0B6807B68DB6B6F
:105548001B685B68A7F8BE30B7F8BE30002B00F0C8
:1055580045817B689B8DB7F8BE209A4280F03E81DA
:105568007B68B7F8BE20DA857B68DB6BDB69B3F54F
:10557800807F00F088807B681B680C33C7F8883010
:10558800D7F8883053E8003FC7F88430D7F884301C
:1055980023F48073C7F8B8307B681B680C33D7F8DE
:1055A800B820C7F89420C7F89030D7F89010D7F8EB
:1055B800942041E80023C7F88C30D7F88C30002BB2
:1055C800D9D17B681B6814337B677B6F53E8003F36
:1055D8003B673B6F23F00103C7F8B4307B681B6857
:1055E8001433D7F8B420C7F88020FB67F96FD7F8D1
:1055F800802041E80023BB67BB6F002BE1D17B68AB
:105608001B6814333B663B6E53E8003FFB65FB6D3C
:1056180023F04003C7F8B0307B681B681433D7F811
:10562800B020FA66BB66B96EFA6E41E800237B6665
:105638007B6E002BE3D17B68202283F842207B68B5
:1056480000221A637B681B680C33FB64FB6C53E80D
:10565800003FBB64BB6C23F01003C7F8AC307B6819
:105668001B680C33D7F8AC20BA657B65796DBA6DC9
:1056780041E800233B653B6D002BE3D17B68DB6B86
:105688001846FDF7E1F97B6802225A637B689A8D18
:105698007B68DB8D9BB2D31A9BB21946786800F001
:1056A800B7F89BE06B5900087B689A8D7B68DB8DA7
:1056B8009BB2D31AA7F8CE307B68DB8D9BB2002B48
:1056C80000F08E80B7F8CE30002B00F089807B6820
:1056D8001B680C33BB63BB6B53E8003F7B637B6B7E
:1056E80023F49073C7F8C8307B681B680C33D7F86D
:1056F800C8207A643B64396C7A6C41E80023FB6308
:10570800FB6B002BE3D17B681B6814337B627B6ADD
:1057180053E8003F3B623B6A23F00103C7F8C430FB
:105728007B681B681433D7F8C4203A63FB62F96AB4
:105738003A6B41E80023BB62BB6A002BE3D17B686C
:10574800202283F842207B6800221A637B681B684A
:105758000C333B613B6953E8003FFB60FB6823F077
:105768001003C7F8C0307B681B680C33D7F8C0201B
:10577800FA61BB61B969FA6941E800237B617B6919
:10578800002BE3D17B6802225A63B7F8CE30194662
:10579800786800F03DF823E0D7F8E43003F08003A0
:1057A800002B09D0D7F8E03003F08003002B03D09A
:1057B800786800F0EAF814E0D7F8E43003F0400322
:1057C800002B0ED0D7F8E03003F04003002B08D0B0
:1057D800786800F02AF904E000BF02E000BF00E0AA
:1057E80000BFE837BD4680BD80B483B000AF7860A5
:1057F80000BF0C37BD465DF8047B704780B483B0AA
:1058080000AF786000BF0C37BD465DF8047B704779
:1058180080B483B000AF78600B467B8000BF0C3744
:10582800BD465DF8047B704780B485B000AFF86072
:10583800B9601346FB80FB68BA689A62FB68FA880D
:105848009A85FB68FA88DA85FB6800225A64FB6847
:10585800222283F84220FB681B69002B07D0FB68D3
:105868001B68DA68FB681B6842F48072DA60FB68C0
:105878001B685A69FB681B6842F001025A61FB68A1
:105888001B68DA68FB681B6842F02002DA600023B4
:1058980018461437BD465DF8047B704780B495B050
:1058A80000AF78607B681B680C337B637B6B53E8C5
:1058B800003F3B633B6B23F49073FB647B681B687E
:1058C8000C33FA6C3A64FB63F96B3A6C41E80023D9
:1058D800BB63BB6B002BE5D17B681B6814333B6251
:1058E8003B6A53E8003FFB61FB6923F00103BB649B
:1058F8007B681B681433BA6CFA62BB62B96AFA6ACD
:1059080041E800237B627B6A002BE5D17B681B6B37
:10591800012B19D17B681B680C33FB60FB6853E8CB
:10592800003FBB60BB6823F010037B647B681B6887
:105938000C337A6CBA617B617969BA6941E80023F2
:105948003B613B69002BE5D17B68202283F842202C
:105958007B6800221A6300BF5437BD465DF8047B9C
:10596800704780B584B000AF78607B689B6BFB6044
:10597800FB680022DA85FB680022DA84F868FFF702
:105988003DFF00BF1037BD4680BD80B485B000AF75
:1059980078607B6893F84130DBB2212B3ED17B687D
:1059A8009B68B3F5805F14D17B681B69002B10D10D
:1059B8007B681B6AFB60FB681B881A467B681B6850
:1059C800C2F308025A607B681B6A9A1C7B681A62D9
:1059D80008E07B681B6A591C7A6811621A787B6830
:1059E8001B685A607B68DB8C9BB2013B9BB27A6870
:1059F8001946D184002B0FD17B681B68DA687B6855
:105A08001B6822F08002DA607B681B68DA687B68B2
:105A18001B6842F04002DA60002300E002231846C7
:105A28001437BD465DF8047B704780B582B000AF7F
:105A380078607B681B68DA687B681B6822F0400224
:105A4800DA607B68202283F841207868FFF7CCFE73
:105A5800002318460837BD4680BD80B58CB000AF1E
:105A680078607B6893F84230DBB2222B40F0AE803E
:105A78007B689B68B3F5805F17D17B681B69002B37
:105A880013D10023FB627B689B6ABB627B681B683F
:105A98005B689BB2C3F308039AB2BB6A1A807B683F
:105AA8009B6A9A1C7B689A6226E07B689B6AFB6209
:105AB8000023BB627B689B68B3F5805F07D07B6877
:105AC8009B68002B0AD17B681B69002B06D17B6879
